{
  "contractName": "TransactionLogger",
  "abi": [
    {
      "anonymous": false,
      "inputs": [
        {
          "indexed": true,
          "internalType": "string",
          "name": "transactionId",
          "type": "string"
        },
        {
          "indexed": false,
          "internalType": "string",
          "name": "transactionHash",
          "type": "string"
        },
        {
          "indexed": false,
          "internalType": "uint256",
          "name": "timestamp",
          "type": "uint256"
        }
      ],
      "name": "TransactionStored",
      "type": "event"
    },
    {
      "inputs": [
        {
          "internalType": "string",
          "name": "_transactionId",
          "type": "string"
        },
        {
          "internalType": "string",
          "name": "_transactionHash",
          "type": "string"
        }
      ],
      "name": "storeTransaction",
      "outputs": [],
      "stateMutability": "nonpayable",
      "type": "function"
    },
    {
      "inputs": [
        {
          "internalType": "string",
          "name": "_transactionId",
          "type": "string"
        }
      ],
      "name": "getTransaction",
      "outputs": [
        {
          "internalType": "string",
          "name": "",
          "type": "string"
        },
        {
          "internalType": "uint256",
          "name": "",
          "type": "uint256"
        },
        {
          "internalType": "bool",
          "name": "",
          "type": "bool"
        }
      ],
      "stateMutability": "view",
      "type": "function",
      "constant": true
    },
    {
      "inputs": [],
      "name": "getLatestTransaction",
      "outputs": [
        {
          "internalType": "string",
          "name": "",
          "type": "string"
        },
        {
          "internalType": "uint256",
          "name": "",
          "type": "uint256"
        },
        {
          "internalType": "string",
          "name": "",
          "type": "string"
        }
      ],
      "stateMutability": "view",
      "type": "function",
      "constant": true
    },
    {
      "inputs": [
        {
          "internalType": "string",
          "name": "_transactionId",
          "type": "string"
        },
        {
          "internalType": "string",
          "name": "_transactionHash",
          "type": "string"
        }
      ],
      "name": "verifyTransaction",
      "outputs": [
        {
          "internalType": "bool",
          "name": "",
          "type": "bool"
        }
      ],
      "stateMutability": "view",
      "type": "function",
      "constant": true
    },
    {
      "inputs": [],
      "name": "getTransactionCount",
      "outputs": [
        {
          "internalType": "uint256",
          "name": "",
          "type": "uint256"
        }
      ],
      "stateMutability": "view",
      "type": "function",
      "constant": true
    },
    {
      "inputs": [],
      "name": "getAllTransactionIds",
      "outputs": [
        {
          "internalType": "string[]",
          "name": "",
          "type": "string[]"
        }
      ],
      "stateMutability": "view",
      "type": "function",
      "constant": true
    },
    {
      "inputs": [
        {
          "internalType": "string",
          "name": "_transactionId",
          "type": "string"
        }
      ],
      "name": "transactionExists",
      "outputs": [
        {
          "internalType": "bool",
          "name": "",
          "type": "bool"
        }
      ],
      "stateMutability": "view",
      "type": "function",
      "constant": true
    }
  ],
  "bytecode": "0x6080604052348015600f57600080fd5b5061125c8061001f6000396000f3fe608060405234801561001057600080fd5b506004361061007d5760003560e01c80634c2d03781161005b5780634c2d03781461010057806360fda6101461011e5780636ccc29dc1461013a578063ac2ccd071461015a5761007d565b80631740d80314610082578063193bbd88146100b25780632e7700f0146100e2575b600080fd5b61009c60048036038101906100979190610966565b61018c565b6040516100a991906109f9565b60405180910390f35b6100cc60048036038101906100c79190610a14565b610272565b6040516100d991906109f9565b60405180910390f35b6100ea6102a9565b6040516100f79190610a76565b60405180910390f35b6101086102b6565b6040516101159190610bd2565b60405180910390f35b61013860048036038101906101339190610966565b61038f565b005b610142610496565b60405161015193929190610c3e565b60405180910390f35b610174600480360381019061016f9190610a14565b610699565b60405161018393929190610c83565b60405180910390f35b6000808360405161019d9190610cfd565b908152602001604051809103902060020160009054906101000a900460ff166101fb576040517f08c379a00000000000000000000000000000000000000000000000000000000081526004016101f290610d60565b60405180910390fd5b8160405160200161020c9190610cfd565b604051602081830303815290604052805190602001206000846040516102329190610cfd565b90815260200160405180910390206000016040516020016102539190610e78565b6040516020818303038152906040528051906020012014905092915050565b600080826040516102839190610cfd565b908152602001604051809103902060020160009054906101000a900460ff169050919050565b6000600180549050905090565b60606001805480602002602001604051908101604052809291908181526020016000905b828210156103865783829060005260206000200180546102f990610daf565b80601f016020809104026020016040519081016040528092919081815260200182805461032590610daf565b80156103725780601f1061034757610100808354040283529160200191610372565b820191906000526020600020905b81548152906001019060200180831161035557829003601f168201915b5050505050815260200190600101906102da565b50505050905090565b6040518060600160405280828152602001428152602001600115158152506000836040516103bd9190610cfd565b908152602001604051809103902060008201518160000190816103e09190611026565b506020820151816001015560408201518160020160006101000a81548160ff0219169083151502179055509050506001829080600181540180825580915050600190039060005260206000200160009091909190915090816104429190611026565b50816040516104519190610cfd565b60405180910390207fb4f19b5259ad8adf9176f8ba84ea31df6788cfca5639117f530931642251d8a3824260405161048a9291906110f8565b60405180910390a25050565b6060600060606000600180549050116104e4576040517f08c379a00000000000000000000000000000000000000000000000000000000081526004016104db90611174565b60405180910390fd5b600060018080805490506104f891906111c3565b81548110610509576105086111f7565b5b90600052602060002001805461051e90610daf565b80601f016020809104026020016040519081016040528092919081815260200182805461054a90610daf565b80156105975780601f1061056c57610100808354040283529160200191610597565b820191906000526020600020905b81548152906001019060200180831161057a57829003601f168201915b50505050509050600080826040516105af9190610cfd565b90815260200160405180910390206040518060600160405290816000820180546105d890610daf565b80601f016020809104026020016040519081016040528092919081815260200182805461060490610daf565b80156106515780601f1061062657610100808354040283529160200191610651565b820191906000526020600020905b81548152906001019060200180831161063457829003601f168201915b50505050508152602001600182015481526020016002820160009054906101000a900460ff161515151581525050905080600001518160200151839450945094505050909192565b60606000806000846040516106ae9190610cfd565b908152602001604051809103902060020160009054906101000a900460ff1661070c576040517f08c379a000000000000000000000000000000000000000000000000000000000815260040161070390610d60565b60405180910390fd5b6000808560405161071d9190610cfd565b908152602001604051809103902060405180606001604052908160008201805461074690610daf565b80601f016020809104026020016040519081016040528092919081815260200182805461077290610daf565b80156107bf5780601f10610794576101008083540402835291602001916107bf565b820191906000526020600020905b8154815290600101906020018083116107a257829003601f168201915b50505050508152602001600182015481526020016002820160009054906101000a900460ff1615151515815250509050806000015181602001518260400151935093509350509193909250565b6000604051905090565b600080fd5b600080fd5b600080fd5b600080fd5b6000601f19601f8301169050919050565b7f4e487b7100000000000000000000000000000000000000000000000000000000600052604160045260246000fd5b6108738261082a565b810181811067ffffffffffffffff821117156108925761089161083b565b5b80604052505050565b60006108a561080c565b90506108b1828261086a565b919050565b600067ffffffffffffffff8211156108d1576108d061083b565b5b6108da8261082a565b9050602081019050919050565b82818337600083830152505050565b6000610909610904846108b6565b61089b565b90508281526020810184848401111561092557610924610825565b5b6109308482856108e7565b509392505050565b600082601f83011261094d5761094c610820565b5b813561095d8482602086016108f6565b91505092915050565b6000806040838503121561097d5761097c610816565b5b600083013567ffffffffffffffff81111561099b5761099a61081b565b5b6109a785828601610938565b925050602083013567ffffffffffffffff8111156109c8576109c761081b565b5b6109d485828601610938565b9150509250929050565b60008115159050919050565b6109f3816109de565b82525050565b6000602082019050610a0e60008301846109ea565b92915050565b600060208284031215610a2a57610a29610816565b5b600082013567ffffffffffffffff811115610a4857610a4761081b565b5b610a5484828501610938565b91505092915050565b6000819050919050565b610a7081610a5d565b82525050565b6000602082019050610a8b6000830184610a67565b92915050565b600081519050919050565b600082825260208201905092915050565b6000819050602082019050919050565b600081519050919050565b600082825260208201905092915050565b60005b83811015610af7578082015181840152602081019050610adc565b60008484015250505050565b6000610b0e82610abd565b610b188185610ac8565b9350610b28818560208601610ad9565b610b318161082a565b840191505092915050565b6000610b488383610b03565b905092915050565b6000602082019050919050565b6000610b6882610a91565b610b728185610a9c565b935083602082028501610b8485610aad565b8060005b85811015610bc05784840389528151610ba18582610b3c565b9450610bac83610b50565b925060208a01995050600181019050610b88565b50829750879550505050505092915050565b60006020820190508181036000830152610bec8184610b5d565b905092915050565b600082825260208201905092915050565b6000610c1082610abd565b610c1a8185610bf4565b9350610c2a818560208601610ad9565b610c338161082a565b840191505092915050565b60006060820190508181036000830152610c588186610c05565b9050610c676020830185610a67565b8181036040830152610c798184610c05565b9050949350505050565b60006060820190508181036000830152610c9d8186610c05565b9050610cac6020830185610a67565b610cb960408301846109ea565b949350505050565b600081905092915050565b6000610cd782610abd565b610ce18185610cc1565b9350610cf1818560208601610ad9565b80840191505092915050565b6000610d098284610ccc565b915081905092915050565b7f5472616e73616374696f6e204944206e6f7420666f756e640000000000000000600082015250565b6000610d4a601883610bf4565b9150610d5582610d14565b602082019050919050565b60006020820190508181036000830152610d7981610d3d565b9050919050565b7f4e487b7100000000000000000000000000000000000000000000000000000000600052602260045260246000fd5b60006002820490506001821680610dc757607f821691505b602082108103610dda57610dd9610d80565b5b50919050565b60008190508160005260206000209050919050565b60008154610e0281610daf565b610e0c8186610cc1565b94506001821660008114610e275760018114610e3c57610e6f565b60ff1983168652811515820286019350610e6f565b610e4585610de0565b60005b83811015610e6757815481890152600182019150602081019050610e48565b838801955050505b50505092915050565b6000610e848284610df5565b915081905092915050565b60006020601f8301049050919050565b600082821b905092915050565b600060088302610edc7fffffffffffffffffffffffffffffffffffffffffffffffffffffffffffffffff82610e9f565b610ee68683610e9f565b95508019841693508086168417925050509392505050565b6000819050919050565b6000610f23610f1e610f1984610a5d565b610efe565b610a5d565b9050919050565b6000819050919050565b610f3d83610f08565b610f51610f4982610f2a565b848454610eac565b825550505050565b600090565b610f66610f59565b610f71818484610f34565b505050565b5b81811015610f9557610f8a600082610f5e565b600181019050610f77565b5050565b601f821115610fda57610fab81610de0565b610fb484610e8f565b81016020851015610fc3578190505b610fd7610fcf85610e8f565b830182610f76565b50505b505050565b600082821c905092915050565b6000610ffd60001984600802610fdf565b1980831691505092915050565b60006110168383610fec565b9150826002028217905092915050565b61102f82610abd565b67ffffffffffffffff8111156110485761104761083b565b5b6110528254610daf565b61105d828285610f99565b600060209050601f831160018114611090576000841561107e578287015190505b611088858261100a565b8655506110f0565b601f19841661109e86610de0565b60005b828110156110c6578489015182556001820191506020850194506020810190506110a1565b868310156110e357848901516110df601f891682610fec565b8355505b6001600288020188555050505b505050505050565b600060408201905081810360008301526111128185610c05565b90506111216020830184610a67565b9392505050565b7f4e6f207472616e73616374696f6e730000000000000000000000000000000000600082015250565b600061115e600f83610bf4565b915061116982611128565b602082019050919050565b6000602082019050818103600083015261118d81611151565b9050919050565b7f4e487b7100000000000000000000000000000000000000000000000000000000600052601160045260246000fd5b60006111ce82610a5d565b91506111d983610a5d565b92508282039050818111156111f1576111f0611194565b5b92915050565b7f4e487b7100000000000000000000000000000000000000000000000000000000600052603260045260246000fdfea2646970667358221220a322ee4d578ab5f1db4fb1d0c87f0f99a112f440af76b5e5a67e147aecaa65dd64736f6c634300081f0033",
  "immutableReferences": {},
  "source": "// SPDX-License-Identifier: MIT\r\npragma solidity ^0.8.31;\r\n\r\ncontract TransactionLogger {\r\n    \r\n    // Structure to store each transaction's data\r\n    struct TransactionRecord {\r\n        string transactionHash;\r\n        uint256 timestamp;\r\n        bool exists;\r\n    }\r\n    \r\n    // Mapping from transaction ID to its record\r\n    mapping(string => TransactionRecord) private transactions;\r\n    \r\n    // Array to keep track of all transaction IDs\r\n    string[] private transactionIds;\r\n    \r\n    // Events for logging\r\n    event TransactionStored(string indexed transactionId, string transactionHash, uint256 timestamp);\r\n    \r\n    // Store transaction hash with its ID\r\n    function storeTransaction(string memory _transactionId, string memory _transactionHash) public {\r\n        // Create new record\r\n        transactions[_transactionId] = TransactionRecord({\r\n            transactionHash: _transactionHash,\r\n            timestamp: block.timestamp,\r\n            exists: true\r\n        });\r\n        \r\n        // Add to IDs array\r\n        transactionIds.push(_transactionId);\r\n        \r\n        // Emit event\r\n        emit TransactionStored(_transactionId, _transactionHash, block.timestamp);\r\n    }\r\n    \r\n    // Get transaction hash by ID\r\n    function getTransaction(string memory _transactionId) public view returns (string memory, uint256, bool) {\r\n        require(transactions[_transactionId].exists, \"Transaction ID not found\");\r\n        TransactionRecord memory record = transactions[_transactionId];\r\n        return (record.transactionHash, record.timestamp, record.exists);\r\n    }\r\n    \r\n    // Get latest transaction (optional)\r\n    function getLatestTransaction() public view returns (string memory, uint256, string memory) {\r\n        require(transactionIds.length > 0, \"No transactions\");\r\n        string memory latestId = transactionIds[transactionIds.length - 1];\r\n        TransactionRecord memory record = transactions[latestId];\r\n        return (record.transactionHash, record.timestamp, latestId);\r\n    }\r\n    \r\n    // Verify if hash matches\r\n    function verifyTransaction(string memory _transactionId, string memory _transactionHash) public view returns (bool) {\r\n        require(transactions[_transactionId].exists, \"Transaction ID not found\");\r\n        return keccak256(abi.encodePacked(transactions[_transactionId].transactionHash)) == keccak256(abi.encodePacked(_transactionHash));\r\n    }\r\n    \r\n    // Get total transaction count\r\n    function getTransactionCount() public view returns (uint256) {\r\n        return transactionIds.length;\r\n    }\r\n    \r\n    // Get all transaction IDs (for admin)\r\n    function getAllTransactionIds() public view returns (string[] memory) {\r\n        return transactionIds;\r\n    }\r\n    \r\n    // Check if transaction exists\r\n    function transactionExists(string memory _transactionId) public view returns (bool) {\r\n        return transactions[_transactionId].exists;\r\n    }\r\n}",
  "sourcePath": "C:\\Users\\Lenovo\\Desktop\\6th sem\\payment-system\\blockchain\\contracts\\TransactionLogger.sol",
  "compiler": {
    "name": "solc",
    "version": "0.8.31+commit.fd3a2265.Emscripten.clang"
  },
  "schemaVersion": "3.4.16",
  "updatedAt": "2026-03-08T09:23:50.787Z",
  "networkType": "ethereum",
  "devdoc": {
    "kind": "dev",
    "methods": {},
    "version": 1
  },
  "userdoc": {
    "kind": "user",
    "methods": {},
    "version": 1
  }
}